{"abi":[{"type":"constructor","inputs":[],"stateMutability":"nonpayable"},{"type":"function","name":"addManager","inputs":[{"name":"a","type":"address","internalType":"address"},{"name":"state","type":"bool","internalType":"bool"}],"outputs":[],"stateMutability":"nonpayable"},{"type":"function","name":"approve","inputs":[{"name":"to","type":"address","internalType":"address"},{"name":"tokenId","type":"uint256","internalType":"uint256"}],"outputs":[],"stateMutability":"nonpayable"},{"type":"function","name":"balanceOf","inputs":[{"name":"owner","type":"address","internalType":"address"}],"outputs":[{"name":"","type":"uint256","internalType":"uint256"}],"stateMutability":"view"},{"type":"function","name":"burn","inputs":[{"name":"id","type":"uint256","internalType":"uint256"}],"outputs":[],"stateMutability":"nonpayable"},{"type":"function","name":"getApproved","inputs":[{"name":"tokenId","type":"uint256","internalType":"uint256"}],"outputs":[{"name":"","type":"address","internalType":"address"}],"stateMutability":"view"},{"type":"function","name":"isApprovedForAll","inputs":[{"name":"owner","type":"address","internalType":"address"},{"name":"operator","type":"address","internalType":"address"}],"outputs":[{"name":"","type":"bool","internalType":"bool"}],"stateMutability":"view"},{"type":"function","name":"mintMethod1","inputs":[{"name":"to","type":"address","internalType":"address"}],"outputs":[],"stateMutability":"nonpayable"},{"type":"function","name":"mintMethod2","inputs":[{"name":"to","type":"address","internalType":"address"},{"name":"amount","type":"uint256","internalType":"uint256"}],"outputs":[],"stateMutability":"nonpayable"},{"type":"function","name":"name","inputs":[],"outputs":[{"name":"","type":"string","internalType":"string"}],"stateMutability":"view"},{"type":"function","name":"owner","inputs":[],"outputs":[{"name":"","type":"address","internalType":"address"}],"stateMutability":"view"},{"type":"function","name":"ownerOf","inputs":[{"name":"tokenId","type":"uint256","internalType":"uint256"}],"outputs":[{"name":"","type":"address","internalType":"address"}],"stateMutability":"view"},{"type":"function","name":"renounceOwnership","inputs":[],"outputs":[],"stateMutability":"nonpayable"},{"type":"function","name":"royaltyInfo","inputs":[{"name":"tokenId","type":"uint256","internalType":"uint256"},{"name":"salePrice","type":"uint256","internalType":"uint256"}],"outputs":[{"name":"","type":"address","internalType":"address"},{"name":"","type":"uint256","internalType":"uint256"}],"stateMutability":"view"},{"type":"function","name":"safeTransferFrom","inputs":[{"name":"from","type":"address","internalType":"address"},{"name":"to","type":"address","internalType":"address"},{"name":"tokenId","type":"uint256","internalType":"uint256"}],"outputs":[],"stateMutability":"nonpayable"},{"type":"function","name":"safeTransferFrom","inputs":[{"name":"from","type":"address","internalType":"address"},{"name":"to","type":"address","internalType":"address"},{"name":"tokenId","type":"uint256","internalType":"uint256"},{"name":"data","type":"bytes","internalType":"bytes"}],"outputs":[],"stateMutability":"nonpayable"},{"type":"function","name":"setApprovalForAll","inputs":[{"name":"operator","type":"address","internalType":"address"},{"name":"approved","type":"bool","internalType":"bool"}],"outputs":[],"stateMutability":"nonpayable"},{"type":"function","name":"setBaseUri","inputs":[{"name":"newUri","type":"string","internalType":"string"}],"outputs":[],"stateMutability":"nonpayable"},{"type":"function","name":"setRoyalty","inputs":[{"name":"reciever","type":"address","internalType":"address"},{"name":"fraction","type":"uint96","internalType":"uint96"}],"outputs":[],"stateMutability":"nonpayable"},{"type":"function","name":"setRpCore","inputs":[{"name":"core","type":"address","internalType":"address"}],"outputs":[],"stateMutability":"nonpayable"},{"type":"function","name":"supportsInterface","inputs":[{"name":"interfaceId","type":"bytes4","internalType":"bytes4"}],"outputs":[{"name":"","type":"bool","internalType":"bool"}],"stateMutability":"view"},{"type":"function","name":"symbol","inputs":[],"outputs":[{"name":"","type":"string","internalType":"string"}],"stateMutability":"view"},{"type":"function","name":"tokenURI","inputs":[{"name":"tokenId","type":"uint256","internalType":"uint256"}],"outputs":[{"name":"","type":"string","internalType":"string"}],"stateMutability":"view"},{"type":"function","name":"totalSupply","inputs":[],"outputs":[{"name":"","type":"uint256","internalType":"uint256"}],"stateMutability":"view"},{"type":"function","name":"transferFrom","inputs":[{"name":"from","type":"address","internalType":"address"},{"name":"to","type":"address","internalType":"address"},{"name":"tokenId","type":"uint256","internalType":"uint256"}],"outputs":[],"stateMutability":"nonpayable"},{"type":"function","name":"transferOwnership","inputs":[{"name":"newOwner","type":"address","internalType":"address"}],"outputs":[],"stateMutability":"nonpayable"},{"type":"event","name":"Approval","inputs":[{"name":"owner","type":"address","indexed":true,"internalType":"address"},{"name":"approved","type":"address","indexed":true,"internalType":"address"},{"name":"tokenId","type":"uint256","indexed":true,"internalType":"uint256"}],"anonymous":false},{"type":"event","name":"ApprovalForAll","inputs":[{"name":"owner","type":"address","indexed":true,"internalType":"address"},{"name":"operator","type":"address","indexed":true,"internalType":"address"},{"name":"approved","type":"bool","indexed":false,"internalType":"bool"}],"anonymous":false},{"type":"event","name":"BatchMetadataUpdate","inputs":[{"name":"_fromTokenId","type":"uint256","indexed":false,"internalType":"uint256"},{"name":"_toTokenId","type":"uint256","indexed":false,"internalType":"uint256"}],"anonymous":false},{"type":"event","name":"Burn","inputs":[{"name":"id","type":"uint256","indexed":true,"internalType":"uint256"},{"name":"from","type":"address","indexed":true,"internalType":"address"}],"anonymous":false},{"type":"event","name":"MetadataUpdate","inputs":[{"name":"_tokenId","type":"uint256","indexed":false,"internalType":"uint256"}],"anonymous":false},{"type":"event","name":"OwnershipTransferred","inputs":[{"name":"previousOwner","type":"address","indexed":true,"internalType":"address"},{"name":"newOwner","type":"address","indexed":true,"internalType":"address"}],"anonymous":false},{"type":"event","name":"Transfer","inputs":[{"name":"from","type":"address","indexed":true,"internalType":"address"},{"name":"to","type":"address","indexed":true,"internalType":"address"},{"name":"tokenId","type":"uint256","indexed":true,"internalType":"uint256"}],"anonymous":false},{"type":"error","name":"ERC2981InvalidDefaultRoyalty","inputs":[{"name":"numerator","type":"uint256","internalType":"uint256"},{"name":"denominator","type":"uint256","internalType":"uint256"}]},{"type":"error","name":"ERC2981InvalidDefaultRoyaltyReceiver","inputs":[{"name":"receiver","type":"address","internalType":"address"}]},{"type":"error","name":"ERC2981InvalidTokenRoyalty","inputs":[{"name":"tokenId","type":"uint256","internalType":"uint256"},{"name":"numerator","type":"uint256","internalType":"uint256"},{"name":"denominator","type":"uint256","internalType":"uint256"}]},{"type":"error","name":"ERC2981InvalidTokenRoyaltyReceiver","inputs":[{"name":"tokenId","type":"uint256","internalType":"uint256"},{"name":"receiver","type":"address","internalType":"address"}]},{"type":"error","name":"ERC721IncorrectOwner","inputs":[{"name":"sender","type":"address","internalType":"address"},{"name":"tokenId","type":"uint256","internalType":"uint256"},{"name":"owner","type":"address","internalType":"address"}]},{"type":"error","name":"ERC721InsufficientApproval","inputs":[{"name":"operator","type":"address","internalType":"address"},{"name":"tokenId","type":"uint256","internalType":"uint256"}]},{"type":"error","name":"ERC721InvalidApprover","inputs":[{"name":"approver","type":"address","internalType":"address"}]},{"type":"error","name":"ERC721InvalidOperator","inputs":[{"name":"operator","type":"address","internalType":"address"}]},{"type":"error","name":"ERC721InvalidOwner","inputs":[{"name":"owner","type":"address","internalType":"address"}]},{"type":"error","name":"ERC721InvalidReceiver","inputs":[{"name":"receiver","type":"address","internalType":"address"}]},{"type":"error","name":"ERC721InvalidSender","inputs":[{"name":"sender","type":"address","internalType":"address"}]},{"type":"error","name":"ERC721NonexistentToken","inputs":[{"name":"tokenId","type":"uint256","internalType":"uint256"}]},{"type":"error","name":"OwnableInvalidOwner","inputs":[{"name":"owner","type":"address","internalType":"address"}]},{"type":"error","name":"OwnableUnauthorizedAccount","inputs":[{"name":"account","type":"address","internalType":"address"}]}],"bytecode":{"object":"0x6103e8600b55610d80600c556001600d55610100604052604260808181529062001f5f60a039600e90620000349082620002c3565b503480156200004257600080fd5b50336040518060400160405280601581526020017f536b6962626964696573204f6620426974636f696e00000000000000000000008152506040518060400160405280600381526020016229a7a160e91b8152508160009081620000a79190620002c3565b506001620000b68282620002c3565b5050506001600160a01b038116620000e957604051631e4fbdf760e01b8152600060048201526024015b60405180910390fd5b620000f48162000123565b5062000103336103e862000175565b336000908152600f60205260409020805460ff191660011790556200038f565b600780546001600160a01b038381166001600160a01b0319831681179093556040519116919082907f8be0079c531659141344cd1fd0a4f28419497f9722a3daafe3b4186f6b6457e090600090a35050565b6127106001600160601b038216811015620001b657604051636f483d0960e01b81526001600160601b038316600482015260248101829052604401620000e0565b6001600160a01b038316620001e257604051635b6cc80560e11b815260006004820152602401620000e0565b50604080518082019091526001600160a01b039092168083526001600160601b039091166020909201829052600160a01b90910217600855565b634e487b7160e01b600052604160045260246000fd5b600181811c908216806200024757607f821691505b6020821081036200026857634e487b7160e01b600052602260045260246000fd5b50919050565b601f821115620002be576000816000526020600020601f850160051c81016020861015620002995750805b601f850160051c820191505b81811015620002ba57828155600101620002a5565b5050505b505050565b81516001600160401b03811115620002df57620002df6200021c565b620002f781620002f0845462000232565b846200026e565b602080601f8311600181146200032f5760008415620003165750858301515b600019600386901b1c1916600185901b178555620002ba565b600085815260208120601f198616915b8281101562000360578886015182559484019460019091019084016200033f565b50858210156200037f5787850151600019600388901b60f8161c191681555b5050505050600190811b01905550565b611bc0806200039f6000396000f3fe608060405234801561001057600080fd5b50600436106101735760003560e01c8063715018a6116100de578063a22cb46511610097578063c87b56dd11610071578063c87b56dd14610343578063cec26e5114610356578063e985e9c514610369578063f2fde38b1461037c57600080fd5b8063a22cb4651461030a578063b358f0081461031d578063b88d4fde1461033057600080fd5b8063715018a6146102b0578063797f6914146102b85780638da5cb5b146102cb5780638f2fc60b146102dc57806395d89b41146102ef578063a0bcfc7f146102f757600080fd5b806323b872dd1161013057806323b872dd1461021f5780632a55205a1461023257806342842e0e1461026457806342966c68146102775780636352211e1461028a57806370a082311461029d57600080fd5b806301ffc9a71461017857806306fdde03146101a0578063081812fc146101b5578063095ea7b3146101e05780630f20cdf4146101f557806318160ddd14610208575b600080fd5b61018b6101863660046115a7565b61038f565b60405190151581526020015b60405180910390f35b6101a86103a0565b6040516101979190611614565b6101c86101c3366004611627565b610432565b6040516001600160a01b039091168152602001610197565b6101f36101ee36600461165c565b61045b565b005b6101f361020336600461165c565b61046a565b610211600c5481565b604051908152602001610197565b6101f361022d366004611686565b6105f2565b6102456102403660046116c2565b61067d565b604080516001600160a01b039093168352602083019190915201610197565b6101f3610272366004611686565b610729565b6101f3610285366004611627565b610744565b6101c8610298366004611627565b61079a565b6102116102ab3660046116e4565b6107a5565b6101f36107ed565b6101f36102c63660046116e4565b610801565b6007546001600160a01b03166101c8565b6101f36102ea3660046116ff565b61082b565b6101a861083d565b6101f36103053660046117ce565b61084c565b6101f3610318366004611825565b610860565b6101f361032b3660046116e4565b61086b565b6101f361033e366004611851565b610976565b6101a8610351366004611627565b61098d565b6101f3610364366004611825565b610998565b61018b6103773660046118cd565b6109cb565b6101f361038a3660046116e4565b6109f9565b600061039a82610a37565b92915050565b6060600080546103af90611900565b80601f01602080910402602001604051908101604052809291908181526020018280546103db90611900565b80156104285780601f106103fd57610100808354040283529160200191610428565b820191906000526020600020905b81548152906001019060200180831161040b57829003601f168201915b5050505050905090565b600061043d82610a5c565b506000828152600460205260409020546001600160a01b031661039a565b610466828233610a95565b5050565b336000908152600f602052604090205460ff166104bc5760405162461bcd60e51b815260206004820152600b60248201526a1b9bdd08185b1b1bddd95960aa1b60448201526064015b60405180910390fd5b60005b8181101561054657600d54600c548111156105095760405162461bcd60e51b815260206004820152600a6024820152691b5a5b9d1959081bdd5d60b21b60448201526064016104b3565b6105138482610aa2565b6105258161052083610abc565b610aed565b6001600d60008282546105389190611950565b9091555050506001016104bf565b50600a546001600160a01b03161561046657600a54600b546001600160a01b039091169063507cd30f90849061057d908590611963565b6040516001600160e01b031960e085901b1681526001600160a01b03909216600483015260248201526044015b6020604051808303816000875af11580156105c9573d6000803e3d6000fd5b505050506040513d601f19601f820116820180604052508101906105ed919061197a565b505050565b6001600160a01b03821661061c57604051633250574960e11b8152600060048201526024016104b3565b6000610629838333610b3d565b9050836001600160a01b0316816001600160a01b031614610677576040516364283d7b60e01b81526001600160a01b03808616600483015260248201849052821660448201526064016104b3565b50505050565b60008281526009602090815260408083208151808301909252546001600160a01b038116808352600160a01b9091046001600160601b03169282019290925282916106f25750604080518082019091526008546001600160a01b0381168252600160a01b90046001600160601b031660208201525b602081015160009061271090610711906001600160601b031687611963565b61071b9190611997565b915196919550909350505050565b6105ed83838360405180602001604052806000815250610976565b3361074e82610a5c565b6001600160a01b03161461076157600080fd5b61076a81610c36565b604051339082907ff6554c3a5d28e08c120b5a69c7edbaf52f935bd2596a60b8a18e282cd257cddb90600090a350565b600061039a82610a5c565b60006001600160a01b0382166107d1576040516322718ad960e21b8152600060048201526024016104b3565b506001600160a01b031660009081526003602052604090205490565b6107f5610c71565b6107ff6000610c9e565b565b610809610c71565b600a80546001600160a01b0319166001600160a01b0392909216919091179055565b610833610c71565b6104668282610cf0565b6060600180546103af90611900565b610854610c71565b600e6104668282611a09565b610466338383610d93565b336000908152600f602052604090205460ff166108b85760405162461bcd60e51b815260206004820152600b60248201526a1b9bdd08185b1b1bddd95960aa1b60448201526064016104b3565b600d54600c548111156108fa5760405162461bcd60e51b815260206004820152600a6024820152691b5a5b9d1959081bdd5d60b21b60448201526064016104b3565b6109048282610aa2565b6109118161052083610abc565b6001600d60008282546109249190611950565b9091555050600a546001600160a01b03161561046657600a54600b5460405163507cd30f60e01b81526001600160a01b038581166004830152602482019290925291169063507cd30f906044016105aa565b6109818484846105f2565b61067784848484610e32565b606061039a82610f5b565b6109a0610c71565b6001600160a01b03919091166000908152600f60205260409020805460ff1916911515919091179055565b6001600160a01b03918216600090815260056020908152604080832093909416825291909152205460ff1690565b610a01610c71565b6001600160a01b038116610a2b57604051631e4fbdf760e01b8152600060048201526024016104b3565b610a3481610c9e565b50565b60006001600160e01b0319821663152a902d60e11b148061039a575061039a8261105f565b6000818152600260205260408120546001600160a01b03168061039a57604051637e27328960e01b8152600481018490526024016104b3565b6105ed8383836001611084565b61046682826040518060200160405280600081525061118a565b6060610ac7826111a1565b604051602001610ad79190611ac9565b6040516020818303038152906040529050919050565b6000828152600660205260409020610b058282611a09565b506040518281527ff8e1a15aba9398e019f0b49df1a4fde98ee17ae345cb5f6b5e2c27f5033e8ce79060200160405180910390a15050565b6000828152600260205260408120546001600160a01b0390811690831615610b6a57610b6a818486611235565b6001600160a01b03811615610ba857610b87600085600080611084565b6001600160a01b038116600090815260036020526040902080546000190190555b6001600160a01b03851615610bd7576001600160a01b0385166000908152600360205260409020805460010190555b60008481526002602052604080822080546001600160a01b0319166001600160a01b0389811691821790925591518793918516917fddf252ad1be2c89b69c2b068fc378daa952ba7f163c4a11628f55a4df523b3ef91a4949350505050565b6000610c456000836000610b3d565b90506001600160a01b03811661046657604051637e27328960e01b8152600481018390526024016104b3565b6007546001600160a01b031633146107ff5760405163118cdaa760e01b81523360048201526024016104b3565b600780546001600160a01b038381166001600160a01b0319831681179093556040519116919082907f8be0079c531659141344cd1fd0a4f28419497f9722a3daafe3b4186f6b6457e090600090a35050565b6127106001600160601b038216811015610d2f57604051636f483d0960e01b81526001600160601b0383166004820152602481018290526044016104b3565b6001600160a01b038316610d5957604051635b6cc80560e11b8152600060048201526024016104b3565b50604080518082019091526001600160a01b039092168083526001600160601b039091166020909201829052600160a01b90910217600855565b6001600160a01b038216610dc557604051630b61174360e31b81526001600160a01b03831660048201526024016104b3565b6001600160a01b03838116600081815260056020908152604080832094871680845294825291829020805460ff191686151590811790915591519182527f17307eab39ab6107e8899845ad3d59bd9653f200f220920489ca2b5937696c31910160405180910390a3505050565b6001600160a01b0383163b1561067757604051630a85bd0160e11b81526001600160a01b0384169063150b7a0290610e74903390889087908790600401611b01565b6020604051808303816000875af1925050508015610eaf575060408051601f3d908101601f19168201909252610eac91810190611b3e565b60015b610f18573d808015610edd576040519150601f19603f3d011682016040523d82523d6000602084013e610ee2565b606091505b508051600003610f1057604051633250574960e11b81526001600160a01b03851660048201526024016104b3565b805181602001fd5b6001600160e01b03198116630a85bd0160e11b14610f5457604051633250574960e11b81526001600160a01b03851660048201526024016104b3565b5050505050565b6060610f6682610a5c565b5060008281526006602052604081208054610f8090611900565b80601f0160208091040260200160405190810160405280929190818152602001828054610fac90611900565b8015610ff95780601f10610fce57610100808354040283529160200191610ff9565b820191906000526020600020905b815481529060010190602001808311610fdc57829003601f168201915b50505050509050600061100a611299565b9050805160000361101c575092915050565b81511561104e578082604051602001611036929190611b5b565b60405160208183030381529060405292505050919050565b611057846112a8565b949350505050565b60006001600160e01b03198216632483248360e11b148061039a575061039a82611310565b808061109857506001600160a01b03821615155b1561115a5760006110a884610a5c565b90506001600160a01b038316158015906110d45750826001600160a01b0316816001600160a01b031614155b80156110e757506110e581846109cb565b155b156111105760405163a9fbf51f60e01b81526001600160a01b03841660048201526024016104b3565b81156111585783856001600160a01b0316826001600160a01b03167f8c5be1e5ebec7d5bd14f71427d1e84f3dd0314c0f7b2291e5b200ac8c7c3b92560405160405180910390a45b505b5050600090815260046020526040902080546001600160a01b0319166001600160a01b0392909216919091179055565b6111948383611360565b6105ed6000848484610e32565b606060006111ae836113c5565b600101905060008167ffffffffffffffff8111156111ce576111ce611742565b6040519080825280601f01601f1916602001820160405280156111f8576020820181803683370190505b5090508181016020015b600019016f181899199a1a9b1b9c1cb0b131b232b360811b600a86061a8153600a8504945084611202575b509392505050565b61124083838361149d565b6105ed576001600160a01b03831661126e57604051637e27328960e01b8152600481018290526024016104b3565b60405163177e802f60e01b81526001600160a01b0383166004820152602481018290526044016104b3565b6060600e80546103af90611900565b60606112b382610a5c565b5060006112be611299565b905060008151116112de5760405180602001604052806000815250611309565b806112e884611500565b6040516020016112f9929190611b5b565b6040516020818303038152906040525b9392505050565b60006001600160e01b031982166380ac58cd60e01b148061134157506001600160e01b03198216635b5e139f60e01b145b8061039a57506301ffc9a760e01b6001600160e01b031983161461039a565b6001600160a01b03821661138a57604051633250574960e11b8152600060048201526024016104b3565b600061139883836000610b3d565b90506001600160a01b038116156105ed576040516339e3563760e11b8152600060048201526024016104b3565b60008072184f03e93ff9f4daa797ed6e38ed64bf6a1f0160401b83106114045772184f03e93ff9f4daa797ed6e38ed64bf6a1f0160401b830492506040015b6d04ee2d6d415b85acef81000000008310611430576d04ee2d6d415b85acef8100000000830492506020015b662386f26fc10000831061144e57662386f26fc10000830492506010015b6305f5e1008310611466576305f5e100830492506008015b612710831061147a57612710830492506004015b6064831061148c576064830492506002015b600a831061039a5760010192915050565b60006001600160a01b038316158015906110575750826001600160a01b0316846001600160a01b031614806114d757506114d784846109cb565b806110575750506000908152600460205260409020546001600160a01b03908116911614919050565b6060600061150d836113c5565b600101905060008167ffffffffffffffff81111561152d5761152d611742565b6040519080825280601f01601f191660200182016040528015611557576020820181803683370190505b5090508181016020015b600019016f181899199a1a9b1b9c1cb0b131b232b360811b600a86061a8153600a85049450841561122d57611561565b6001600160e01b031981168114610a3457600080fd5b6000602082840312156115b957600080fd5b813561130981611591565b60005b838110156115df5781810151838201526020016115c7565b50506000910152565b600081518084526116008160208601602086016115c4565b601f01601f19169290920160200192915050565b60208152600061130960208301846115e8565b60006020828403121561163957600080fd5b5035919050565b80356001600160a01b038116811461165757600080fd5b919050565b6000806040838503121561166f57600080fd5b61167883611640565b946020939093013593505050565b60008060006060848603121561169b57600080fd5b6116a484611640565b92506116b260208501611640565b9150604084013590509250925092565b600080604083850312156116d557600080fd5b50508035926020909101359150565b6000602082840312156116f657600080fd5b61130982611640565b6000806040838503121561171257600080fd5b61171b83611640565b915060208301356001600160601b038116811461173757600080fd5b809150509250929050565b634e487b7160e01b600052604160045260246000fd5b600067ffffffffffffffff8084111561177357611773611742565b604051601f8501601f19908116603f0116810190828211818310171561179b5761179b611742565b816040528093508581528686860111156117b457600080fd5b858560208301376000602087830101525050509392505050565b6000602082840312156117e057600080fd5b813567ffffffffffffffff8111156117f757600080fd5b8201601f8101841361180857600080fd5b61105784823560208401611758565b8015158114610a3457600080fd5b6000806040838503121561183857600080fd5b61184183611640565b9150602083013561173781611817565b6000806000806080858703121561186757600080fd5b61187085611640565b935061187e60208601611640565b925060408501359150606085013567ffffffffffffffff8111156118a157600080fd5b8501601f810187136118b257600080fd5b6118c187823560208401611758565b91505092959194509250565b600080604083850312156118e057600080fd5b6118e983611640565b91506118f760208401611640565b90509250929050565b600181811c9082168061191457607f821691505b60208210810361193457634e487b7160e01b600052602260045260246000fd5b50919050565b634e487b7160e01b600052601160045260246000fd5b8082018082111561039a5761039a61193a565b808202811582820484141761039a5761039a61193a565b60006020828403121561198c57600080fd5b815161130981611817565b6000826119b457634e487b7160e01b600052601260045260246000fd5b500490565b601f8211156105ed576000816000526020600020601f850160051c810160208610156119e25750805b601f850160051c820191505b81811015611a01578281556001016119ee565b505050505050565b815167ffffffffffffffff811115611a2357611a23611742565b611a3781611a318454611900565b846119b9565b602080601f831160018114611a6c5760008415611a545750858301515b600019600386901b1c1916600185901b178555611a01565b600085815260208120601f198616915b82811015611a9b57888601518255948401946001909101908401611a7c565b5085821015611ab95787850151600019600388901b60f8161c191681555b5050505050600190811b01905550565b602f60f81b815260008251611ae58160018501602087016115c4565b64173539b7b760d91b6001939091019283015250600601919050565b6001600160a01b0385811682528416602082015260408101839052608060608201819052600090611b34908301846115e8565b9695505050505050565b600060208284031215611b5057600080fd5b815161130981611591565b60008351611b6d8184602088016115c4565b835190830190611b818183602088016115c4565b0194935050505056fea2646970667358221220071a98d4cb99fbd48a4ba411431510344baefed5eb493d1fd789aee333d3cf1464736f6c63430008170033697066733a2f2f62616679626569647769756b376832627368723473637935757175336e66367a6d71626273757066786a78366b6867677a37676836693533677371","linkReferences":{}},"methodIdentifiers":{"addManager(address,bool)":"cec26e51","approve(address,uint256)":"095ea7b3","balanceOf(address)":"70a08231","burn(uint256)":"42966c68","getApproved(uint256)":"081812fc","isApprovedForAll(address,address)":"e985e9c5","mintMethod1(address)":"b358f008","mintMethod2(address,uint256)":"0f20cdf4","name()":"06fdde03","owner()":"8da5cb5b","ownerOf(uint256)":"6352211e","renounceOwnership()":"715018a6","royaltyInfo(uint256,uint256)":"2a55205a","safeTransferFrom(address,address,uint256)":"42842e0e","safeTransferFrom(address,address,uint256,bytes)":"b88d4fde","setApprovalForAll(address,bool)":"a22cb465","setBaseUri(string)":"a0bcfc7f","setRoyalty(address,uint96)":"8f2fc60b","setRpCore(address)":"797f6914","supportsInterface(bytes4)":"01ffc9a7","symbol()":"95d89b41","tokenURI(uint256)":"c87b56dd","totalSupply()":"18160ddd","transferFrom(address,address,uint256)":"23b872dd","transferOwnership(address)":"f2fde38b"},"id":41}