{"abi":[{"type":"constructor","inputs":[],"stateMutability":"nonpayable"},{"type":"function","name":"callBytes","inputs":[{"name":"target","type":"address","internalType":"address"},{"name":"params","type":"bytes","internalType":"bytes"}],"outputs":[{"name":"","type":"bytes","internalType":"bytes"}],"stateMutability":"payable"},{"type":"function","name":"checkClaimableRp","inputs":[{"name":"user","type":"address","internalType":"address"},{"name":"nonce","type":"uint256","internalType":"uint256"}],"outputs":[{"name":"weiClaimable","type":"uint256","internalType":"uint256"}],"stateMutability":"view"},{"type":"function","name":"claimRPYield","inputs":[{"name":"index","type":"uint256","internalType":"uint256"}],"outputs":[],"stateMutability":"nonpayable"},{"type":"function","name":"minStakePeriod","inputs":[],"outputs":[{"name":"","type":"uint256","internalType":"uint256"}],"stateMutability":"view"},{"type":"function","name":"onERC721Received","inputs":[{"name":"","type":"address","internalType":"address"},{"name":"","type":"address","internalType":"address"},{"name":"","type":"uint256","internalType":"uint256"},{"name":"","type":"bytes","internalType":"bytes"}],"outputs":[{"name":"","type":"bytes4","internalType":"bytes4"}],"stateMutability":"pure"},{"type":"function","name":"owner","inputs":[],"outputs":[{"name":"","type":"address","internalType":"address"}],"stateMutability":"view"},{"type":"function","name":"renounceOwnership","inputs":[],"outputs":[],"stateMutability":"nonpayable"},{"type":"function","name":"setAddresses","inputs":[{"name":"_tokenRP","type":"address","internalType":"address"},{"name":"skib","type":"address","internalType":"address"}],"outputs":[],"stateMutability":"nonpayable"},{"type":"function","name":"setMinPeriod","inputs":[{"name":"timeframeInSec","type":"uint256","internalType":"uint256"}],"outputs":[],"stateMutability":"nonpayable"},{"type":"function","name":"setRpPerSec","inputs":[{"name":"_wei","type":"uint256","internalType":"uint256"}],"outputs":[],"stateMutability":"nonpayable"},{"type":"function","name":"skibbidies","inputs":[],"outputs":[{"name":"","type":"address","internalType":"contract SKIBBIDIESOFBITCOIN"}],"stateMutability":"view"},{"type":"function","name":"stake","inputs":[{"name":"id","type":"uint256","internalType":"uint256"},{"name":"timeperiod","type":"uint256","internalType":"uint256"}],"outputs":[],"stateMutability":"payable"},{"type":"function","name":"stakers","inputs":[{"name":"","type":"address","internalType":"address"}],"outputs":[{"name":"totalStaked","type":"uint256","internalType":"uint256"},{"name":"activeStaked","type":"uint256","internalType":"uint256"}],"stateMutability":"view"},{"type":"function","name":"tokenizedRP","inputs":[],"outputs":[{"name":"","type":"address","internalType":"contract WrappedRP"}],"stateMutability":"view"},{"type":"function","name":"transferOwnership","inputs":[{"name":"newOwner","type":"address","internalType":"address"}],"outputs":[],"stateMutability":"nonpayable"},{"type":"function","name":"unstake","inputs":[{"name":"index","type":"uint256","internalType":"uint256"}],"outputs":[],"stateMutability":"payable"},{"type":"function","name":"userStakes","inputs":[{"name":"","type":"address","internalType":"address"},{"name":"","type":"uint256","internalType":"uint256"}],"outputs":[{"name":"id","type":"uint256","internalType":"uint256"},{"name":"stTime","type":"uint256","internalType":"uint256"},{"name":"unlockTime","type":"uint256","internalType":"uint256"},{"name":"lastClaimTime","type":"uint256","internalType":"uint256"},{"name":"staker","type":"address","internalType":"address"},{"name":"unstaked","type":"bool","internalType":"bool"}],"stateMutability":"view"},{"type":"function","name":"weiPerSecond","inputs":[],"outputs":[{"name":"","type":"uint256","internalType":"uint256"}],"stateMutability":"view"},{"type":"function","name":"withdraw","inputs":[],"outputs":[],"stateMutability":"nonpayable"},{"type":"event","name":"OwnershipTransferred","inputs":[{"name":"previousOwner","type":"address","indexed":true,"internalType":"address"},{"name":"newOwner","type":"address","indexed":true,"internalType":"address"}],"anonymous":false},{"type":"error","name":"OwnableInvalidOwner","inputs":[{"name":"owner","type":"address","internalType":"address"}]},{"type":"error","name":"OwnableUnauthorizedAccount","inputs":[{"name":"account","type":"address","internalType":"address"}]}],"bytecode":{"object":"0x6080604052633b9aca0060015562093a8060025534801561001f57600080fd5b50338061004657604051631e4fbdf760e01b81526000600482015260240160405180910390fd5b61004f81610055565b506100a5565b600080546001600160a01b038381166001600160a01b0319831681178455604051919092169283917f8be0079c531659141344cd1fd0a4f28419497f9722a3daafe3b4186f6b6457e09190a35050565b6110b3806100b46000396000f3fe6080604052600436106101145760003560e01c80637b0472f0116100a0578063b5d5b5fa11610064578063b5d5b5fa14610318578063d2045b0e146103ba578063d84f2bc6146103da578063f2fde38b146103f0578063f82107691461041057600080fd5b80637b0472f01461026857806384c07de41461027b5780638da5cb5b1461029157806390107afe146102af5780639168ae72146102cf57600080fd5b80632e17de78116100e75780632e17de78146101dd5780633ccfd60b146101f05780634880904d146102055780636f2a7f5d14610225578063715018a61461025357600080fd5b806302d2c801146101195780630ca7fa6a1461013b578063150b7a02146101785780632636f7f8146101bd575b600080fd5b34801561012557600080fd5b50610139610134366004610d26565b610430565b005b34801561014757600080fd5b5060035461015b906001600160a01b031681565b6040516001600160a01b0390911681526020015b60405180910390f35b34801561018457600080fd5b506101a4610193366004610d54565b630a85bd0160e11b95945050505050565b6040516001600160e01b0319909116815260200161016f565b6101d06101cb366004610e09565b610614565b60405161016f9190610ef1565b6101396101eb366004610d26565b610695565b3480156101fc57600080fd5b50610139610810565b34801561021157600080fd5b5060045461015b906001600160a01b031681565b34801561023157600080fd5b50610245610240366004610f24565b610861565b60405190815260200161016f565b34801561025f57600080fd5b506101396108aa565b610139610276366004610f50565b6108be565b34801561028757600080fd5b5061024560015481565b34801561029d57600080fd5b506000546001600160a01b031661015b565b3480156102bb57600080fd5b506101396102ca366004610f72565b610bae565b3480156102db57600080fd5b506103036102ea366004610fab565b6006602052600090815260409020805460019091015482565b6040805192835260208301919091520161016f565b34801561032457600080fd5b50610382610333366004610f24565b600560209081526000928352604080842090915290825290208054600182015460028301546003840154600490940154929391929091906001600160a01b03811690600160a01b900460ff1686565b6040805196875260208701959095529385019290925260608401526001600160a01b03166080830152151560a082015260c00161016f565b3480156103c657600080fd5b506101396103d5366004610d26565b610be4565b3480156103e657600080fd5b5061024560025481565b3480156103fc57600080fd5b5061013961040b366004610fab565b610bf1565b34801561041c57600080fd5b5061013961042b366004610d26565b610c2c565b3360009081526005602090815260408083208484529091529020543061045582610c39565b6001600160a01b03161480156104905750336000908152600560209081526040808320858452909152902060040154600160a01b900460ff16155b6104e15760405162461bcd60e51b815260206004820152601b60248201527f496e646578206973206e6f742061637469766520616e796d6f7265000000000060448201526064015b60405180910390fd5b336000908152600560209081526040808320858452909152902060030154600254429061050e9083610fe5565b111561055c5760405162461bcd60e51b815260206004820152601b60248201527f4e6f74204f6e65204461792066726f6d204c61737420636c61696d000000000060448201526064016104d8565b60006105683385610861565b60035460405163a76682db60e01b8152336004820152602481018390529192506000916001600160a01b039091169063a76682db906044016020604051808303816000875af11580156105bf573d6000803e3d6000fd5b505050506040513d601f19601f820116820180604052508101906105e39190610ff8565b9050801561060d573360009081526005602090815260408083208884529091529020426003909101555b5050505050565b606061061e610ca9565b600080846001600160a01b0316348560405161063a919061101a565b60006040518083038185875af1925050503d8060008114610677576040519150601f19603f3d011682016040523d82523d6000602084013e61067c565b606091505b50915091508161068b57600080fd5b9150505b92915050565b336000908152600560209081526040808320848452909152902054306106ba82610c39565b6001600160a01b03161480156106ed57503360009081526005602090815260408083208584529091529020600201544210155b801561071e5750336000908152600560209081526040808320858452909152902060040154600160a01b900460ff16155b61072757600080fd5b60048054604051632142170760e11b81523092810192909252336024830152604482018390526001600160a01b0316906342842e0e90606401600060405180830381600087803b15801561077a57600080fd5b505af115801561078e573d6000803e3d6000fd5b50505050336001600160a01b03166107a582610c39565b6001600160a01b03160361080c5733600090815260066020526040812060019081018054919290916107d8908490611036565b90915550503360009081526005602090815260408083208584529091529020600401805460ff60a01b1916600160a01b1790555b5050565b610818610ca9565b60405160009033904780156108fc029184818181858888f1935050505090508061085e5760405162461bcd60e51b815260206004820152600060248201526044016104d8565b50565b6001600160a01b038216600090815260056020908152604080832084845290915281206003015460015442906108978383611036565b6108a19190611049565b95945050505050565b6108b2610ca9565b6108bc6000610cd6565b565b600480546040516331a9108f60e11b815291820184905233916001600160a01b0390911690636352211e90602401602060405180830381865afa158015610909573d6000803e3d6000fd5b505050506040513d601f19601f8201168201806040525081019061092d9190611060565b6001600160a01b03161461094057600080fd5b6002548110156109925760405162461bcd60e51b815260206004820152601760248201527f4d757374206174206c656173742062652037206461797300000000000000000060448201526064016104d8565b60048054604051632142170760e11b81523392810192909252306024830152604482018490526001600160a01b0316906342842e0e90606401600060405180830381600087803b1580156109e557600080fd5b505af11580156109f9573d6000803e3d6000fd5b5050600480546040516331a9108f60e11b81529182018690523093506001600160a01b03169150636352211e90602401602060405180830381865afa158015610a46573d6000803e3d6000fd5b505050506040513d601f19601f82011682018060405250810190610a6a9190611060565b6001600160a01b031603610b7d5733600090815260066020526040812080549160019190610a988385610fe5565b90915550503360009081526006602052604081206001908101805491929091610ac2908490610fe5565b9250508190555060006040518060c001604052808581526020014281526020018442610aee9190610fe5565b815242602080830191909152336040808401829052600060609485018190529182526005835280822096825295825285902083518155908301516001820155938201516002850155810151600384015560808101516004909301805460a0909201511515600160a01b026001600160a81b03199092166001600160a01b03949094169390931717909155505050565b60405162461bcd60e51b81526004016104d89060208082526004908201526319985a5b60e21b604082015260600190565b610bb6610ca9565b600380546001600160a01b039384166001600160a01b03199182161790915560048054929093169116179055565b610bec610ca9565b600155565b610bf9610ca9565b6001600160a01b038116610c2357604051631e4fbdf760e01b8152600060048201526024016104d8565b61085e81610cd6565b610c34610ca9565b600255565b600480546040516331a9108f60e11b81529182018390526000916001600160a01b0390911690636352211e90602401602060405180830381865afa158015610c85573d6000803e3d6000fd5b505050506040513d601f19601f8201168201806040525081019061068f9190611060565b6000546001600160a01b031633146108bc5760405163118cdaa760e01b81523360048201526024016104d8565b600080546001600160a01b038381166001600160a01b0319831681178455604051919092169283917f8be0079c531659141344cd1fd0a4f28419497f9722a3daafe3b4186f6b6457e09190a35050565b600060208284031215610d3857600080fd5b5035919050565b6001600160a01b038116811461085e57600080fd5b600080600080600060808688031215610d6c57600080fd5b8535610d7781610d3f565b94506020860135610d8781610d3f565b935060408601359250606086013567ffffffffffffffff80821115610dab57600080fd5b818801915088601f830112610dbf57600080fd5b813581811115610dce57600080fd5b896020828501011115610de057600080fd5b9699959850939650602001949392505050565b634e487b7160e01b600052604160045260246000fd5b60008060408385031215610e1c57600080fd5b8235610e2781610d3f565b9150602083013567ffffffffffffffff80821115610e4457600080fd5b818501915085601f830112610e5857600080fd5b813581811115610e6a57610e6a610df3565b604051601f8201601f19908116603f01168101908382118183101715610e9257610e92610df3565b81604052828152886020848701011115610eab57600080fd5b8260208601602083013760006020848301015280955050505050509250929050565b60005b83811015610ee8578181015183820152602001610ed0565b50506000910152565b6020815260008251806020840152610f10816040850160208701610ecd565b601f01601f19169190910160400192915050565b60008060408385031215610f3757600080fd5b8235610f4281610d3f565b946020939093013593505050565b60008060408385031215610f6357600080fd5b50508035926020909101359150565b60008060408385031215610f8557600080fd5b8235610f9081610d3f565b91506020830135610fa081610d3f565b809150509250929050565b600060208284031215610fbd57600080fd5b8135610fc881610d3f565b9392505050565b634e487b7160e01b600052601160045260246000fd5b8082018082111561068f5761068f610fcf565b60006020828403121561100a57600080fd5b81518015158114610fc857600080fd5b6000825161102c818460208701610ecd565b9190910192915050565b8181038181111561068f5761068f610fcf565b808202811582820484141761068f5761068f610fcf565b60006020828403121561107257600080fd5b8151610fc881610d3f56fea2646970667358221220470f9b6d77137788ee2931d22b77160fbfbc31178223ef0dbdbe103af48ae3d864736f6c63430008140033","linkReferences":{}},"methodIdentifiers":{"callBytes(address,bytes)":"2636f7f8","checkClaimableRp(address,uint256)":"6f2a7f5d","claimRPYield(uint256)":"02d2c801","minStakePeriod()":"d84f2bc6","onERC721Received(address,address,uint256,bytes)":"150b7a02","owner()":"8da5cb5b","renounceOwnership()":"715018a6","setAddresses(address,address)":"90107afe","setMinPeriod(uint256)":"f8210769","setRpPerSec(uint256)":"d2045b0e","skibbidies()":"4880904d","stake(uint256,uint256)":"7b0472f0","stakers(address)":"9168ae72","tokenizedRP()":"0ca7fa6a","transferOwnership(address)":"f2fde38b","unstake(uint256)":"2e17de78","userStakes(address,uint256)":"b5d5b5fa","weiPerSecond()":"84c07de4","withdraw()":"3ccfd60b"},"id":55}