{"abi":[{"type":"constructor","inputs":[{"name":"deployer","type":"address","internalType":"address"},{"name":"_core","type":"address","internalType":"address"}],"stateMutability":"nonpayable"},{"type":"function","name":"allowance","inputs":[{"name":"owner","type":"address","internalType":"address"},{"name":"spender","type":"address","internalType":"address"}],"outputs":[{"name":"","type":"uint256","internalType":"uint256"}],"stateMutability":"view"},{"type":"function","name":"approve","inputs":[{"name":"spender","type":"address","internalType":"address"},{"name":"value","type":"uint256","internalType":"uint256"}],"outputs":[{"name":"","type":"bool","internalType":"bool"}],"stateMutability":"nonpayable"},{"type":"function","name":"balanceOf","inputs":[{"name":"account","type":"address","internalType":"address"}],"outputs":[{"name":"","type":"uint256","internalType":"uint256"}],"stateMutability":"view"},{"type":"function","name":"decimals","inputs":[],"outputs":[{"name":"","type":"uint8","internalType":"uint8"}],"stateMutability":"view"},{"type":"function","name":"enableTransfers","inputs":[{"name":"state","type":"bool","internalType":"bool"}],"outputs":[],"stateMutability":"nonpayable"},{"type":"function","name":"manager","inputs":[{"name":"","type":"address","internalType":"address"}],"outputs":[{"name":"","type":"bool","internalType":"bool"}],"stateMutability":"view"},{"type":"function","name":"name","inputs":[],"outputs":[{"name":"","type":"string","internalType":"string"}],"stateMutability":"view"},{"type":"function","name":"opBurn","inputs":[{"name":"from","type":"address","internalType":"address"},{"name":"_wei","type":"uint256","internalType":"uint256"}],"outputs":[{"name":"","type":"bool","internalType":"bool"}],"stateMutability":"nonpayable"},{"type":"function","name":"opMint","inputs":[{"name":"to","type":"address","internalType":"address"},{"name":"_wei","type":"uint256","internalType":"uint256"}],"outputs":[{"name":"","type":"bool","internalType":"bool"}],"stateMutability":"nonpayable"},{"type":"function","name":"owner","inputs":[],"outputs":[{"name":"","type":"address","internalType":"address"}],"stateMutability":"view"},{"type":"function","name":"publicTransfersEnabled","inputs":[],"outputs":[{"name":"","type":"bool","internalType":"bool"}],"stateMutability":"view"},{"type":"function","name":"renounceOwnership","inputs":[],"outputs":[],"stateMutability":"nonpayable"},{"type":"function","name":"rpCore","inputs":[],"outputs":[{"name":"","type":"address","internalType":"contract EventCore"}],"stateMutability":"view"},{"type":"function","name":"setManager","inputs":[{"name":"addr","type":"address","internalType":"address"},{"name":"state","type":"bool","internalType":"bool"}],"outputs":[],"stateMutability":"nonpayable"},{"type":"function","name":"symbol","inputs":[],"outputs":[{"name":"","type":"string","internalType":"string"}],"stateMutability":"view"},{"type":"function","name":"totalSupply","inputs":[],"outputs":[{"name":"","type":"uint256","internalType":"uint256"}],"stateMutability":"view"},{"type":"function","name":"transfer","inputs":[{"name":"to","type":"address","internalType":"address"},{"name":"value","type":"uint256","internalType":"uint256"}],"outputs":[{"name":"","type":"bool","internalType":"bool"}],"stateMutability":"nonpayable"},{"type":"function","name":"transferFrom","inputs":[{"name":"from","type":"address","internalType":"address"},{"name":"to","type":"address","internalType":"address"},{"name":"value","type":"uint256","internalType":"uint256"}],"outputs":[{"name":"","type":"bool","internalType":"bool"}],"stateMutability":"nonpayable"},{"type":"function","name":"transferOwnership","inputs":[{"name":"newOwner","type":"address","internalType":"address"}],"outputs":[],"stateMutability":"nonpayable"},{"type":"function","name":"unwrap","inputs":[{"name":"_wholeRp","type":"uint256","internalType":"uint256"}],"outputs":[{"name":"","type":"bool","internalType":"bool"}],"stateMutability":"payable"},{"type":"function","name":"withdraw","inputs":[],"outputs":[],"stateMutability":"nonpayable"},{"type":"function","name":"wrap","inputs":[{"name":"_rpWhole","type":"uint256","internalType":"uint256"}],"outputs":[{"name":"x","type":"bool","internalType":"bool"}],"stateMutability":"payable"},{"type":"event","name":"Approval","inputs":[{"name":"owner","type":"address","indexed":true,"internalType":"address"},{"name":"spender","type":"address","indexed":true,"internalType":"address"},{"name":"value","type":"uint256","indexed":false,"internalType":"uint256"}],"anonymous":false},{"type":"event","name":"OwnershipTransferred","inputs":[{"name":"previousOwner","type":"address","indexed":true,"internalType":"address"},{"name":"newOwner","type":"address","indexed":true,"internalType":"address"}],"anonymous":false},{"type":"event","name":"Transfer","inputs":[{"name":"from","type":"address","indexed":true,"internalType":"address"},{"name":"to","type":"address","indexed":true,"internalType":"address"},{"name":"value","type":"uint256","indexed":false,"internalType":"uint256"}],"anonymous":false},{"type":"error","name":"ERC20InsufficientAllowance","inputs":[{"name":"spender","type":"address","internalType":"address"},{"name":"allowance","type":"uint256","internalType":"uint256"},{"name":"needed","type":"uint256","internalType":"uint256"}]},{"type":"error","name":"ERC20InsufficientBalance","inputs":[{"name":"sender","type":"address","internalType":"address"},{"name":"balance","type":"uint256","internalType":"uint256"},{"name":"needed","type":"uint256","internalType":"uint256"}]},{"type":"error","name":"ERC20InvalidApprover","inputs":[{"name":"approver","type":"address","internalType":"address"}]},{"type":"error","name":"ERC20InvalidReceiver","inputs":[{"name":"receiver","type":"address","internalType":"address"}]},{"type":"error","name":"ERC20InvalidSender","inputs":[{"name":"sender","type":"address","internalType":"address"}]},{"type":"error","name":"ERC20InvalidSpender","inputs":[{"name":"spender","type":"address","internalType":"address"}]},{"type":"error","name":"OwnableInvalidOwner","inputs":[{"name":"owner","type":"address","internalType":"address"}]},{"type":"error","name":"OwnableUnauthorizedAccount","inputs":[{"name":"account","type":"address","internalType":"address"}]}],"bytecode":{"object":"0x60806040523480156200001157600080fd5b50604051620015a8380380620015a8833981016040819052620000349162000168565b816040518060400160405280600a8152602001690577261707065642052560b41b8152506040518060400160405280600381526020016207752560ec1b815250816003908162000085919062000245565b50600462000094828262000245565b5050506001600160a01b038116620000c657604051631e4fbdf760e01b81526000600482015260240160405180910390fd5b620000d181620000f9565b50600680546001600160a01b0319166001600160a01b03929092169190911790555062000311565b600580546001600160a01b038381166001600160a01b0319831681179093556040519116919082907f8be0079c531659141344cd1fd0a4f28419497f9722a3daafe3b4186f6b6457e090600090a35050565b80516001600160a01b03811681146200016357600080fd5b919050565b600080604083850312156200017c57600080fd5b62000187836200014b565b915062000197602084016200014b565b90509250929050565b634e487b7160e01b600052604160045260246000fd5b600181811c90821680620001cb57607f821691505b602082108103620001ec57634e487b7160e01b600052602260045260246000fd5b50919050565b601f8211156200024057600081815260208120601f850160051c810160208610156200021b5750805b601f850160051c820191505b818110156200023c5782815560010162000227565b5050505b505050565b81516001600160401b03811115620002615762000261620001a0565b6200027981620002728454620001b6565b84620001f2565b602080601f831160018114620002b15760008415620002985750858301515b600019600386901b1c1916600185901b1785556200023c565b600085815260208120601f198616915b82811015620002e257888601518255948401946001909101908401620002c1565b5085821015620003015787850151600019600388901b60f8161c191681555b5050505050600190811b01905550565b61128780620003216000396000f3fe6080604052600436106101355760003560e01c806395d89b41116100ab578063d9c1aaf71161006f578063d9c1aaf71461036e578063dd62ed3e1461038e578063de0e9a3e146103d4578063ea598cb0146103e7578063f2fde38b146103fa578063f41e60c51461041a57600080fd5b806395d89b41146102c9578063a5e90eee146102de578063a76682db146102fe578063a9059cbb1461031e578063d4d2e7f21461033e57600080fd5b80633ccfd60b116100fd5780633ccfd60b146101f05780634792fc6e1461020757806370a082311461023f578063715018a614610275578063845d586f1461028a5780638da5cb5b146102ab57600080fd5b806306fdde031461013a578063095ea7b31461016557806318160ddd1461019557806323b872dd146101b4578063313ce567146101d4575b600080fd5b34801561014657600080fd5b5061014f61043a565b60405161015c9190610de6565b60405180910390f35b34801561017157600080fd5b50610185610180366004610e30565b6104cc565b604051901515815260200161015c565b3480156101a157600080fd5b506002545b60405190815260200161015c565b3480156101c057600080fd5b506101856101cf366004610e5a565b6104e6565b3480156101e057600080fd5b506040516012815260200161015c565b3480156101fc57600080fd5b5061020561050c565b005b34801561021357600080fd5b50600654610227906001600160a01b031681565b6040516001600160a01b03909116815260200161015c565b34801561024b57600080fd5b506101a661025a366004610e96565b6001600160a01b031660009081526020819052604090205490565b34801561028157600080fd5b50610205610562565b34801561029657600080fd5b5060065461018590600160a01b900460ff1681565b3480156102b757600080fd5b506005546001600160a01b0316610227565b3480156102d557600080fd5b5061014f610576565b3480156102ea57600080fd5b506102056102f9366004610ebf565b610585565b34801561030a57600080fd5b50610185610319366004610e30565b6105b8565b34801561032a57600080fd5b50610185610339366004610e30565b610618565b34801561034a57600080fd5b50610185610359366004610e96565b60076020526000908152604090205460ff1681565b34801561037a57600080fd5b50610185610389366004610e30565b610626565b34801561039a57600080fd5b506101a66103a9366004610ef6565b6001600160a01b03918216600090815260016020908152604080832093909416825291909152205490565b6101856103e2366004610f29565b61067d565b6101856103f5366004610f29565b61074b565b34801561040657600080fd5b50610205610415366004610e96565b610784565b34801561042657600080fd5b50610205610435366004610f42565b6107bf565b60606003805461044990610f5f565b80601f016020809104026020016040519081016040528092919081815260200182805461047590610f5f565b80156104c25780601f10610497576101008083540402835291602001916104c2565b820191906000526020600020905b8154815290600101906020018083116104a557829003601f168201915b5050505050905090565b6000336104da8185856107e5565b60019150505b92915050565b6000336104f48582856107f7565b6104ff858585610875565b60019150505b9392505050565b6105146108d2565b60405160009033904780156108fc029184818181858888f1935050505090508061055f5760405162461bcd60e51b815260206004820152600060248201526044015b60405180910390fd5b50565b61056a6108d2565b61057460006108ff565b565b60606004805461044990610f5f565b61058d6108d2565b6001600160a01b03919091166000908152600760205260409020805460ff1916911515919091179055565b3360009081526007602052604081205460ff166106055760405162461bcd60e51b815260206004820152600b60248201526a1b9bdd08185b1b1bddd95960aa1b6044820152606401610556565b61060f8383610951565b50600192915050565b6000336104da818585610875565b3360009081526007602052604081205460ff166106735760405162461bcd60e51b815260206004820152600b60248201526a1b9bdd08185b1b1bddd95960aa1b6044820152606401610556565b61060f838361098b565b600061068b6012600a61108d565b610695908361109c565b3360009081526020819052604090205410156106f35760405162461bcd60e51b815260206004820152601860248201527f4e6f7420656e6f75676820746f6b656e697a65642072707300000000000000006044820152606401610556565b60006107003033856109c1565b90508015610723576104e03361071e85670de0b6b3a764000061109c565b61098b565b60405162461bcd60e51b81526020600482015260006024820152604401610556565b50919050565b60006107583330846109c1565b905080156107235761077f336107706012600a61108d565b61077a908561109c565b610951565b919050565b61078c6108d2565b6001600160a01b0381166107b657604051631e4fbdf760e01b815260006004820152602401610556565b61055f816108ff565b6107c76108d2565b60068054911515600160a01b0260ff60a01b19909216919091179055565b6107f28383836001610ae7565b505050565b6001600160a01b03838116600090815260016020908152604080832093861683529290522054600019811461086f578181101561086057604051637dc7a0d960e11b81526001600160a01b03841660048201526024810182905260448101839052606401610556565b61086f84848484036000610ae7565b50505050565b600654600160a01b900460ff166108c75760405162461bcd60e51b8152602060048201526016602482015275747261646573206e6f7420616c6c6f7765642061746d60501b6044820152606401610556565b6107f2838383610bbc565b6005546001600160a01b031633146105745760405163118cdaa760e01b8152336004820152602401610556565b600580546001600160a01b038381166001600160a01b0319831681179093556040519116919082907f8be0079c531659141344cd1fd0a4f28419497f9722a3daafe3b4186f6b6457e090600090a35050565b6001600160a01b03821661097b5760405163ec442f0560e01b815260006004820152602401610556565b61098760008383610c17565b5050565b6001600160a01b0382166109b557604051634b637e8f60e11b815260006004820152602401610556565b61098782600083610c17565b6000816109cd85610d41565b10156109db57506000610505565b60065460405163f3fff9d760e01b81526001600160a01b03868116600483015260248201859052600092169063f3fff9d7906044016020604051808303816000875af1158015610a2f573d6000803e3d6000fd5b505050506040513d601f19601f82011682018060405250810190610a5391906110be565b90508015610add5760065460405163507cd30f60e01b81526001600160a01b03868116600483015260248201869052600092169063507cd30f906044016020604051808303816000875af1158015610aaf573d6000803e3d6000fd5b505050506040513d601f19601f82011682018060405250810190610ad391906110be565b9250610505915050565b6000915050610505565b6001600160a01b038416610b115760405163e602df0560e01b815260006004820152602401610556565b6001600160a01b038316610b3b57604051634a1406b160e11b815260006004820152602401610556565b6001600160a01b038085166000908152600160209081526040808320938716835292905220829055801561086f57826001600160a01b0316846001600160a01b03167f8c5be1e5ebec7d5bd14f71427d1e84f3dd0314c0f7b2291e5b200ac8c7c3b92584604051610bae91815260200190565b60405180910390a350505050565b6001600160a01b038316610be657604051634b637e8f60e11b815260006004820152602401610556565b6001600160a01b038216610c105760405163ec442f0560e01b815260006004820152602401610556565b6107f28383835b6001600160a01b038316610c42578060026000828254610c3791906110db565b90915550610cb49050565b6001600160a01b03831660009081526020819052604090205481811015610c955760405163391434e360e21b81526001600160a01b03851660048201526024810182905260448101839052606401610556565b6001600160a01b03841660009081526020819052604090209082900390555b6001600160a01b038216610cd057600280548290039055610cef565b6001600160a01b03821660009081526020819052604090208054820190555b816001600160a01b0316836001600160a01b03167fddf252ad1be2c89b69c2b068fc378daa952ba7f163c4a11628f55a4df523b3ef83604051610d3491815260200190565b60405180910390a3505050565b600654604051636f77926b60e01b81526001600160a01b0383811660048301526000928392911690636f77926b90602401600060405180830381865afa158015610d8f573d6000803e3d6000fd5b505050506040513d6000823e601f3d908101601f19168201604052610db7919081019061115e565b602001519392505050565b60005b83811015610ddd578181015183820152602001610dc5565b50506000910152565b6020815260008251806020840152610e05816040850160208701610dc2565b601f01601f19169190910160400192915050565b80356001600160a01b038116811461077f57600080fd5b60008060408385031215610e4357600080fd5b610e4c83610e19565b946020939093013593505050565b600080600060608486031215610e6f57600080fd5b610e7884610e19565b9250610e8660208501610e19565b9150604084013590509250925092565b600060208284031215610ea857600080fd5b61050582610e19565b801515811461055f57600080fd5b60008060408385031215610ed257600080fd5b610edb83610e19565b91506020830135610eeb81610eb1565b809150509250929050565b60008060408385031215610f0957600080fd5b610f1283610e19565b9150610f2060208401610e19565b90509250929050565b600060208284031215610f3b57600080fd5b5035919050565b600060208284031215610f5457600080fd5b813561050581610eb1565b600181811c90821680610f7357607f821691505b60208210810361074557634e487b7160e01b600052602260045260246000fd5b634e487b7160e01b600052601160045260246000fd5b600181815b80851115610fe4578160001904821115610fca57610fca610f93565b80851615610fd757918102915b93841c9390800290610fae565b509250929050565b600082610ffb575060016104e0565b81611008575060006104e0565b816001811461101e576002811461102857611044565b60019150506104e0565b60ff84111561103957611039610f93565b50506001821b6104e0565b5060208310610133831016604e8410600b8410161715611067575081810a6104e0565b6110718383610fa9565b806000190482111561108557611085610f93565b029392505050565b600061050560ff841683610fec565b80820281158282048414176104e0576104e0610f93565b805161077f81610eb1565b6000602082840312156110d057600080fd5b815161050581610eb1565b808201808211156104e0576104e0610f93565b634e487b7160e01b600052604160045260246000fd5b60405160a0810167ffffffffffffffff81118282101715611127576111276110ee565b60405290565b604051601f8201601f1916810167ffffffffffffffff81118282101715611156576111566110ee565b604052919050565b6000602080838503121561117157600080fd5b825167ffffffffffffffff8082111561118957600080fd5b9084019060a0828703121561119d57600080fd5b6111a5611104565b8251828111156111b457600080fd5b8301601f810188136111c557600080fd5b8051838111156111d7576111d76110ee565b6111e9601f8201601f1916870161112d565b935080845288868284010111156111ff57600080fd5b61120e81878601888501610dc2565b5050818152838301518482015260408301516040820152611231606084016110b3565b6060820152611242608084016110b3565b6080820152969550505050505056fea2646970667358221220bfebc9e7184f451c9f1ffd9d5a780e6d131bebedf78bd9f5fa793f08fdaea84064736f6c63430008140033","linkReferences":{}},"methodIdentifiers":{"allowance(address,address)":"dd62ed3e","approve(address,uint256)":"095ea7b3","balanceOf(address)":"70a08231","decimals()":"313ce567","enableTransfers(bool)":"f41e60c5","manager(address)":"d4d2e7f2","name()":"06fdde03","opBurn(address,uint256)":"d9c1aaf7","opMint(address,uint256)":"a76682db","owner()":"8da5cb5b","publicTransfersEnabled()":"845d586f","renounceOwnership()":"715018a6","rpCore()":"4792fc6e","setManager(address,bool)":"a5e90eee","symbol()":"95d89b41","totalSupply()":"18160ddd","transfer(address,uint256)":"a9059cbb","transferFrom(address,address,uint256)":"23b872dd","transferOwnership(address)":"f2fde38b","unwrap(uint256)":"de0e9a3e","withdraw()":"3ccfd60b","wrap(uint256)":"ea598cb0"},"id":56}